{
  "contractName": "Compliance",
  "abi": [
    {
      "inputs": [
        {
          "internalType": "address",
          "name": "_coreAddress",
          "type": "address"
        }
      ],
      "stateMutability": "nonpayable",
      "type": "constructor"
    },
    {
      "anonymous": false,
      "inputs": [
        {
          "indexed": false,
          "internalType": "address",
          "name": "user",
          "type": "address"
        },
        {
          "indexed": false,
          "internalType": "string",
          "name": "report",
          "type": "string"
        }
      ],
      "name": "ComplianceReportGenerated",
      "type": "event"
    },
    {
      "anonymous": false,
      "inputs": [
        {
          "indexed": false,
          "internalType": "address",
          "name": "user",
          "type": "address"
        },
        {
          "indexed": false,
          "internalType": "bool",
          "name": "compliant",
          "type": "bool"
        }
      ],
      "name": "GDPRComplianceChecked",
      "type": "event"
    },
    {
      "anonymous": false,
      "inputs": [
        {
          "indexed": false,
          "internalType": "bytes32",
          "name": "transactionId",
          "type": "bytes32"
        },
        {
          "indexed": false,
          "internalType": "bool",
          "name": "success",
          "type": "bool"
        }
      ],
      "name": "TransactionAudited",
      "type": "event"
    },
    {
      "inputs": [
        {
          "internalType": "address",
          "name": "user",
          "type": "address"
        }
      ],
      "name": "checkGDPRCompliance",
      "outputs": [
        {
          "internalType": "bool",
          "name": "",
          "type": "bool"
        }
      ],
      "stateMutability": "nonpayable",
      "type": "function"
    },
    {
      "inputs": [
        {
          "internalType": "bytes32",
          "name": "transactionId",
          "type": "bytes32"
        }
      ],
      "name": "auditTransaction",
      "outputs": [
        {
          "internalType": "bool",
          "name": "",
          "type": "bool"
        }
      ],
      "stateMutability": "nonpayable",
      "type": "function"
    },
    {
      "inputs": [
        {
          "internalType": "address",
          "name": "user",
          "type": "address"
        }
      ],
      "name": "generateComplianceReport",
      "outputs": [
        {
          "internalType": "string",
          "name": "",
          "type": "string"
        }
      ],
      "stateMutability": "nonpayable",
      "type": "function"
    }
  ],
  "bytecode": "0x608060405234801561001057600080fd5b506040516103c33803806103c383398101604081905261002f91610054565b600080546001600160a01b0319166001600160a01b0392909216919091179055610084565b60006020828403121561006657600080fd5b81516001600160a01b038116811461007d57600080fd5b9392505050565b610330806100936000396000f3fe608060405234801561001057600080fd5b50600436106100415760003560e01c80632e995bde146100465780633643220e1461006f578063ca2d61f214610092575b600080fd5b61005961005436600461020a565b6100a5565b6040516100669190610280565b60405180910390f35b61008261007d366004610293565b61011b565b6040519015158152602001610066565b6100826100a036600461020a565b610158565b604080518082018252601a81527f436f6d706c69616e6365207265706f727420666f72207573657200000000000060208201529051606091907fc5805e0467e2d73ccbc8ff60b7513246dc7d345ad73f93e3abda4dadec253a499061010d90859084906102ac565b60405180910390a192915050565b6040805182815260016020820181905260009290917ffafc6a45357c6ef29877caeecf26ea604c5f6505a32b4db5636bd7e9c30c8ccd910161010d565b6000805460405163077ec1d960e41b81526001600160a01b038481166004830152839216906377ec1d9090602401602060405180830381865afa1580156101a3573d6000803e3d6000fd5b505050506040513d601f19601f820116820180604052508101906101c791906102d8565b604080516001600160a01b038616815282151560208201529192507f535d7024a1151e802378e24c6e5292be9467c6310e6599b2a4854f4fa24807f7910161010d565b60006020828403121561021c57600080fd5b81356001600160a01b038116811461023357600080fd5b9392505050565b6000815180845260005b8181101561026057602081850181015186830182015201610244565b506000602082860101526020601f19601f83011685010191505092915050565b602081526000610233602083018461023a565b6000602082840312156102a557600080fd5b5035919050565b6001600160a01b03831681526040602082018190526000906102d09083018461023a565b949350505050565b6000602082840312156102ea57600080fd5b8151801515811461023357600080fdfea2646970667358221220514db63747171b7033928400b22123422fd1e77db84fdc6f14030b7e794105b664736f6c63430008150033",
  "immutableReferences": {},
  "source": "// SPDX-License-Identifier: UNLICENSED\n\npragma solidity ^0.8.21;\n\nimport \"./CoreContract.sol\";\n\ncontract Compliance {\n    CoreContract core;\n    event GDPRComplianceChecked(address user, bool compliant);\n    event TransactionAudited(bytes32 transactionId, bool success);\n    event ComplianceReportGenerated(address user, string report);\n\n    constructor(address _coreAddress) {\n        core = CoreContract(_coreAddress);\n    }\n\n    function checkGDPRCompliance(address user) public returns (bool) {\n        bool compliant = core.authenticateUser(user);\n        emit GDPRComplianceChecked(user, compliant);\n        return compliant;\n    }\n\n    function auditTransaction(bytes32 transactionId) public returns (bool) {\n        bool success = true; // placeholder logic\n        emit TransactionAudited(transactionId, success);\n        return success;\n    }\n\n    function generateComplianceReport(address user) public returns (string memory) {\n        string memory report = \"Compliance report for user\"; // placeholder logic\n        emit ComplianceReportGenerated(user, report);\n        return report;\n    }\n}\n\n",
  "sourcePath": "/Users/gustavahlstrom/Desktop/insurance-smart-contracts/contracts/Compliance.sol",
  "compiler": {
    "name": "solc",
    "version": "0.8.21+commit.d9974bed.Emscripten.clang"
  },
  "schemaVersion": "3.4.16",
  "updatedAt": "2024-08-13T18:49:02.150Z",
  "networkType": "ethereum",
  "devdoc": {
    "kind": "dev",
    "methods": {},
    "version": 1
  },
  "userdoc": {
    "kind": "user",
    "methods": {},
    "version": 1
  }
}