{
  "contractName": "CustomizableCoverage",
  "abi": [
    {
      "inputs": [
        {
          "internalType": "address",
          "name": "_coreAddress",
          "type": "address"
        }
      ],
      "stateMutability": "nonpayable",
      "type": "constructor"
    },
    {
      "anonymous": false,
      "inputs": [
        {
          "indexed": false,
          "internalType": "address",
          "name": "user",
          "type": "address"
        },
        {
          "indexed": false,
          "internalType": "uint256",
          "name": "policyId",
          "type": "uint256"
        }
      ],
      "name": "PolicyCreated",
      "type": "event"
    },
    {
      "anonymous": false,
      "inputs": [
        {
          "indexed": false,
          "internalType": "address",
          "name": "user",
          "type": "address"
        },
        {
          "indexed": false,
          "internalType": "uint256",
          "name": "policyId",
          "type": "uint256"
        }
      ],
      "name": "PolicyUpdated",
      "type": "event"
    },
    {
      "inputs": [
        {
          "internalType": "address",
          "name": "",
          "type": "address"
        }
      ],
      "name": "policies",
      "outputs": [
        {
          "internalType": "uint256",
          "name": "id",
          "type": "uint256"
        },
        {
          "internalType": "bytes32",
          "name": "coverageDetails",
          "type": "bytes32"
        },
        {
          "internalType": "uint256",
          "name": "premium",
          "type": "uint256"
        }
      ],
      "stateMutability": "view",
      "type": "function",
      "constant": true
    },
    {
      "inputs": [
        {
          "internalType": "bytes32",
          "name": "coverageDetails",
          "type": "bytes32"
        },
        {
          "internalType": "uint256",
          "name": "premium",
          "type": "uint256"
        }
      ],
      "name": "createCustomPolicy",
      "outputs": [],
      "stateMutability": "nonpayable",
      "type": "function"
    },
    {
      "inputs": [
        {
          "internalType": "bytes32",
          "name": "newCoverageDetails",
          "type": "bytes32"
        },
        {
          "internalType": "uint256",
          "name": "newPremium",
          "type": "uint256"
        }
      ],
      "name": "updatePolicy",
      "outputs": [],
      "stateMutability": "nonpayable",
      "type": "function"
    },
    {
      "inputs": [
        {
          "internalType": "address",
          "name": "user",
          "type": "address"
        }
      ],
      "name": "getPolicyDetails",
      "outputs": [
        {
          "components": [
            {
              "internalType": "uint256",
              "name": "id",
              "type": "uint256"
            },
            {
              "internalType": "bytes32",
              "name": "coverageDetails",
              "type": "bytes32"
            },
            {
              "internalType": "uint256",
              "name": "premium",
              "type": "uint256"
            }
          ],
          "internalType": "struct CustomizableCoverage.Policy",
          "name": "",
          "type": "tuple"
        }
      ],
      "stateMutability": "view",
      "type": "function",
      "constant": true
    }
  ],
  "bytecode": "0x608060405234801561001057600080fd5b506040516104c83803806104c883398101604081905261002f91610054565b600080546001600160a01b0319166001600160a01b0392909216919091179055610084565b60006020828403121561006657600080fd5b81516001600160a01b038116811461007d57600080fd5b9392505050565b610435806100936000396000f3fe608060405234801561001057600080fd5b506004361061004c5760003560e01c806320e986981461005157806345f23e291461009f5780636d90d8ad14610127578063945f84a51461013c575b600080fd5b61007f61005f36600461038b565b600160208190526000918252604090912080549181015460029091015483565b604080519384526020840192909252908201526060015b60405180910390f35b6101056100ad36600461038b565b6040805160608082018352600080835260208084018290529284018190526001600160a01b03949094168452600180835293839020835191820184528054825293840154918101919091526002909201549082015290565b6040805182518152602080840151908201529181015190820152606001610096565b61013a6101353660046103bb565b61014f565b005b61013a61014a3660046103bb565b610261565b60005460405163077ec1d960e41b81523360048201526001600160a01b03909116906377ec1d9090602401602060405180830381865afa158015610197573d6000803e3d6000fd5b505050506040513d601f19601f820116820180604052508101906101bb91906103dd565b6102055760405162461bcd60e51b8152602060048201526016602482015275155cd95c881b9bdd08185d5d1a195b9d1a58d85d195960521b60448201526064015b60405180910390fd5b33600081815260016020818152604092839020918201869055600282018590558154835194855290840152917f6d69364a3d2877037e33cea027500f2c22234886348c83cca1207d145b52bb23910160405180910390a1505050565b60005460405163077ec1d960e41b81523360048201526001600160a01b03909116906377ec1d9090602401602060405180830381865afa1580156102a9573d6000803e3d6000fd5b505050506040513d601f19601f820116820180604052508101906102cd91906103dd565b6103125760405162461bcd60e51b8152602060048201526016602482015275155cd95c881b9bdd08185d5d1a195b9d1a58d85d195960521b60448201526064016101fc565b60408051606081018252428082526020808301868152838501868152336000818152600180865290889020965187559251928601929092555160029094019390935583519283528201527f0c82a59457f321d45ec38f6aaf95786bb68907c4273ed492d000832b5951c486910160405180910390a15050565b60006020828403121561039d57600080fd5b81356001600160a01b03811681146103b457600080fd5b9392505050565b600080604083850312156103ce57600080fd5b50508035926020909101359150565b6000602082840312156103ef57600080fd5b815180151581146103b457600080fdfea2646970667358221220001fbb52b0ba38cf9b9ccbcae62ac7b4f7cf80793138c716aee3832dedaf7a6764736f6c63430008150033",
  "immutableReferences": {},
  "source": "// SPDX-License-Identifier: UNLICENSED\n\npragma solidity ^0.8.21;\n\nimport \"./CoreContract.sol\";\n\ncontract CustomizableCoverage {\n    CoreContract core;\n    mapping(address => Policy) public policies;\n    event PolicyCreated(address user, uint256 policyId);\n    event PolicyUpdated(address user, uint256 policyId);\n\n    struct Policy {\n        uint256 id;\n        bytes32 coverageDetails;\n        uint256 premium;\n    }\n\n    modifier onlyRegisteredUser() {\n        require(core.authenticateUser(msg.sender), \"User not authenticated\");\n        _;\n    }\n\n    constructor(address _coreAddress) {\n        core = CoreContract(_coreAddress);\n    }\n\n    function createCustomPolicy(bytes32 coverageDetails, uint256 premium) public onlyRegisteredUser {\n        policies[msg.sender] = Policy({\n            id: block.timestamp, // using timestamp as a simple unique identifier\n            coverageDetails: coverageDetails,\n            premium: premium\n        });\n        emit PolicyCreated(msg.sender, block.timestamp);\n    }\n\n    function updatePolicy(bytes32 newCoverageDetails, uint256 newPremium) public onlyRegisteredUser {\n        Policy storage policy = policies[msg.sender];\n        policy.coverageDetails = newCoverageDetails;\n        policy.premium = newPremium;\n        emit PolicyUpdated(msg.sender, policy.id);\n    }\n\n    function getPolicyDetails(address user) public view returns (Policy memory) {\n        return policies[user];\n    }\n}\n",
  "sourcePath": "/Users/gustavahlstrom/Desktop/insurance-smart-contracts/contracts/CustomizableCoverage.sol",
  "compiler": {
    "name": "solc",
    "version": "0.8.21+commit.d9974bed.Emscripten.clang"
  },
  "schemaVersion": "3.4.16",
  "updatedAt": "2024-08-12T16:24:13.329Z",
  "networkType": "ethereum",
  "devdoc": {
    "kind": "dev",
    "methods": {},
    "version": 1
  },
  "userdoc": {
    "kind": "user",
    "methods": {},
    "version": 1
  }
}