{
  "contractName": "ClaimsProcessing",
  "abi": [
    {
      "inputs": [
        {
          "internalType": "address",
          "name": "_coreAddress",
          "type": "address"
        }
      ],
      "stateMutability": "nonpayable",
      "type": "constructor"
    },
    {
      "anonymous": false,
      "inputs": [
        {
          "indexed": false,
          "internalType": "uint256",
          "name": "claimId",
          "type": "uint256"
        },
        {
          "indexed": false,
          "internalType": "bool",
          "name": "success",
          "type": "bool"
        }
      ],
      "name": "ClaimProcessed",
      "type": "event"
    },
    {
      "anonymous": false,
      "inputs": [
        {
          "indexed": false,
          "internalType": "uint256",
          "name": "claimId",
          "type": "uint256"
        }
      ],
      "name": "ClaimSettled",
      "type": "event"
    },
    {
      "anonymous": false,
      "inputs": [
        {
          "indexed": false,
          "internalType": "uint256",
          "name": "claimId",
          "type": "uint256"
        },
        {
          "indexed": false,
          "internalType": "address",
          "name": "user",
          "type": "address"
        }
      ],
      "name": "ClaimSubmitted",
      "type": "event"
    },
    {
      "inputs": [],
      "name": "claimCount",
      "outputs": [
        {
          "internalType": "uint256",
          "name": "",
          "type": "uint256"
        }
      ],
      "stateMutability": "view",
      "type": "function"
    },
    {
      "inputs": [
        {
          "internalType": "uint256",
          "name": "",
          "type": "uint256"
        }
      ],
      "name": "claims",
      "outputs": [
        {
          "internalType": "address",
          "name": "user",
          "type": "address"
        },
        {
          "internalType": "uint256",
          "name": "policyId",
          "type": "uint256"
        },
        {
          "internalType": "bytes32",
          "name": "details",
          "type": "bytes32"
        },
        {
          "internalType": "bool",
          "name": "processed",
          "type": "bool"
        },
        {
          "internalType": "bool",
          "name": "settled",
          "type": "bool"
        }
      ],
      "stateMutability": "view",
      "type": "function"
    },
    {
      "inputs": [
        {
          "internalType": "uint256",
          "name": "_policyId",
          "type": "uint256"
        },
        {
          "internalType": "bytes32",
          "name": "_details",
          "type": "bytes32"
        }
      ],
      "name": "submitClaim",
      "outputs": [],
      "stateMutability": "nonpayable",
      "type": "function"
    },
    {
      "inputs": [
        {
          "internalType": "uint256",
          "name": "_claimId",
          "type": "uint256"
        }
      ],
      "name": "processClaim",
      "outputs": [],
      "stateMutability": "nonpayable",
      "type": "function"
    },
    {
      "inputs": [
        {
          "internalType": "uint256",
          "name": "_claimId",
          "type": "uint256"
        }
      ],
      "name": "settleClaim",
      "outputs": [],
      "stateMutability": "nonpayable",
      "type": "function"
    }
  ],
  "bytecode": "0x608060405234801561000f575f80fd5b50604051610cd8380380610cd8833981810160405281019061003191906100d4565b805f806101000a81548173ffffffffffffffffffffffffffffffffffffffff021916908373ffffffffffffffffffffffffffffffffffffffff160217905550506100ff565b5f80fd5b5f73ffffffffffffffffffffffffffffffffffffffff82169050919050565b5f6100a38261007a565b9050919050565b6100b381610099565b81146100bd575f80fd5b50565b5f815190506100ce816100aa565b92915050565b5f602082840312156100e9576100e8610076565b5b5f6100f6848285016100c0565b91505092915050565b610bcc8061010c5f395ff3fe608060405234801561000f575f80fd5b5060043610610055575f3560e01c80637257dfc9146100595780638da4d3c914610075578063a0c222b414610093578063a888c2cd146100af578063e406f1d8146100e3575b5f80fd5b610073600480360381019061006e9190610739565b6100ff565b005b61007d610294565b60405161008a9190610773565b60405180910390f35b6100ad60048036038101906100a891906107bf565b61029a565b005b6100c960048036038101906100c49190610739565b6104b4565b6040516100da959493929190610865565b60405180910390f35b6100fd60048036038101906100f89190610739565b61051e565b005b5f8054906101000a900473ffffffffffffffffffffffffffffffffffffffff1673ffffffffffffffffffffffffffffffffffffffff166377ec1d90336040518263ffffffff1660e01b815260040161015791906108b6565b602060405180830381865afa158015610172573d5f803e3d5ffd5b505050506040513d601f19601f8201168201806040525081019061019691906108f9565b6101d5576040517f08c379a00000000000000000000000000000000000000000000000000000000081526004016101cc9061097e565b60405180910390fd5b5f60015f8381526020019081526020015f209050806003015f9054906101000a900460ff161561023a576040517f08c379a0000000000000000000000000000000000000000000000000000000008152600401610231906109e6565b60405180910390fd5b6001816003015f6101000a81548160ff0219169083151502179055507fd4203892740c26c8184cfb101077c87ccf2d01beaf6aef0c250ab43bb43df202826001604051610288929190610a04565b60405180910390a15050565b60025481565b5f8054906101000a900473ffffffffffffffffffffffffffffffffffffffff1673ffffffffffffffffffffffffffffffffffffffff166377ec1d90336040518263ffffffff1660e01b81526004016102f291906108b6565b602060405180830381865afa15801561030d573d5f803e3d5ffd5b505050506040513d601f19601f8201168201806040525081019061033191906108f9565b610370576040517f08c379a00000000000000000000000000000000000000000000000000000000081526004016103679061097e565b60405180910390fd5b60025f81548092919061038290610a58565b91905055506040518060a001604052803373ffffffffffffffffffffffffffffffffffffffff1681526020018381526020018281526020015f151581526020015f151581525060015f60025481526020019081526020015f205f820151815f015f6101000a81548173ffffffffffffffffffffffffffffffffffffffff021916908373ffffffffffffffffffffffffffffffffffffffff16021790555060208201518160010155604082015181600201556060820151816003015f6101000a81548160ff02191690831515021790555060808201518160030160016101000a81548160ff0219169083151502179055509050507f4dfa1d399fc3d748dfe023239c274bdaa380853d97eec367121715b4659d7fdb600254336040516104a8929190610a9f565b60405180910390a15050565b6001602052805f5260405f205f91509050805f015f9054906101000a900473ffffffffffffffffffffffffffffffffffffffff1690806001015490806002015490806003015f9054906101000a900460ff16908060030160019054906101000a900460ff16905085565b5f8054906101000a900473ffffffffffffffffffffffffffffffffffffffff1673ffffffffffffffffffffffffffffffffffffffff166377ec1d90336040518263ffffffff1660e01b815260040161057691906108b6565b602060405180830381865afa158015610591573d5f803e3d5ffd5b505050506040513d601f19601f820116820180604052508101906105b591906108f9565b6105f4576040517f08c379a00000000000000000000000000000000000000000000000000000000081526004016105eb9061097e565b60405180910390fd5b5f60015f8381526020019081526020015f209050806003015f9054906101000a900460ff16610658576040517f08c379a000000000000000000000000000000000000000000000000000000000815260040161064f90610b10565b60405180910390fd5b8060030160019054906101000a900460ff16156106aa576040517f08c379a00000000000000000000000000000000000000000000000000000000081526004016106a190610b78565b60405180910390fd5b60018160030160016101000a81548160ff0219169083151502179055507f08b0d454f7f4ff4f1fd54b22b45c916ac65631587fc0a6f59e8fa5a54c7c80b1826040516106f69190610773565b60405180910390a15050565b5f80fd5b5f819050919050565b61071881610706565b8114610722575f80fd5b50565b5f813590506107338161070f565b92915050565b5f6020828403121561074e5761074d610702565b5b5f61075b84828501610725565b91505092915050565b61076d81610706565b82525050565b5f6020820190506107865f830184610764565b92915050565b5f819050919050565b61079e8161078c565b81146107a8575f80fd5b50565b5f813590506107b981610795565b92915050565b5f80604083850312156107d5576107d4610702565b5b5f6107e285828601610725565b92505060206107f3858286016107ab565b9150509250929050565b5f73ffffffffffffffffffffffffffffffffffffffff82169050919050565b5f610826826107fd565b9050919050565b6108368161081c565b82525050565b6108458161078c565b82525050565b5f8115159050919050565b61085f8161084b565b82525050565b5f60a0820190506108785f83018861082d565b6108856020830187610764565b610892604083018661083c565b61089f6060830185610856565b6108ac6080830184610856565b9695505050505050565b5f6020820190506108c95f83018461082d565b92915050565b6108d88161084b565b81146108e2575f80fd5b50565b5f815190506108f3816108cf565b92915050565b5f6020828403121561090e5761090d610702565b5b5f61091b848285016108e5565b91505092915050565b5f82825260208201905092915050565b7f55736572206e6f742061757468656e74696361746564000000000000000000005f82015250565b5f610968601683610924565b915061097382610934565b602082019050919050565b5f6020820190508181035f8301526109958161095c565b9050919050565b7f436c61696d20616c72656164792070726f6365737365640000000000000000005f82015250565b5f6109d0601783610924565b91506109db8261099c565b602082019050919050565b5f6020820190508181035f8301526109fd816109c4565b9050919050565b5f604082019050610a175f830185610764565b610a246020830184610856565b9392505050565b7f4e487b71000000000000000000000000000000000000000000000000000000005f52601160045260245ffd5b5f610a6282610706565b91507fffffffffffffffffffffffffffffffffffffffffffffffffffffffffffffffff8203610a9457610a93610a2b565b5b600182019050919050565b5f604082019050610ab25f830185610764565b610abf602083018461082d565b9392505050565b7f436c61696d206e6f742070726f636573736564207965740000000000000000005f82015250565b5f610afa601783610924565b9150610b0582610ac6565b602082019050919050565b5f6020820190508181035f830152610b2781610aee565b9050919050565b7f436c61696d20616c726561647920736574746c656400000000000000000000005f82015250565b5f610b62601583610924565b9150610b6d82610b2e565b602082019050919050565b5f6020820190508181035f830152610b8f81610b56565b905091905056fea264697066735822122040310950fed7397af0fd17c07697289ec9571ee0e76fd3b5dd5ad2600a71273d64736f6c63430008150033",
  "immutableReferences": {},
  "source": "// SPDX-License-Identifier: UNLICENSED\n\npragma solidity ^0.8.21;\n\nimport \"./CoreContract.sol\";\n\ncontract ClaimsProcessing {\n    CoreContract core;\n    mapping(uint256 => Claim) public claims;\n    uint256 public claimCount;\n    event ClaimSubmitted(uint256 claimId, address user);\n    event ClaimProcessed(uint256 claimId, bool success);\n    event ClaimSettled(uint256 claimId);\n\n    struct Claim {\n        address user;\n        uint256 policyId;\n        bytes32 details;\n        bool processed;\n        bool settled;\n    }\n\n    modifier onlyRegisteredUser() {\n        require(core.authenticateUser(msg.sender), \"User not authenticated\");\n        _;\n    }\n\n    constructor(address _coreAddress) {\n        core = CoreContract(_coreAddress);\n    }\n\n    function submitClaim(uint256 _policyId, bytes32 _details) public onlyRegisteredUser {\n        claimCount++;\n        claims[claimCount] = Claim(msg.sender, _policyId, _details, false, false);\n        emit ClaimSubmitted(claimCount, msg.sender);\n    }\n\n    function processClaim(uint256 _claimId) public onlyRegisteredUser {\n        Claim storage claim = claims[_claimId];\n        require(!claim.processed, \"Claim already processed\");\n        // Add processing logic here\n        claim.processed = true;\n        emit ClaimProcessed(_claimId, true);\n    }\n\n    function settleClaim(uint256 _claimId) public onlyRegisteredUser {\n        Claim storage claim = claims[_claimId];\n        require(claim.processed, \"Claim not processed yet\");\n        require(!claim.settled, \"Claim already settled\");\n        // Add settlement logic here\n        claim.settled = true;\n        emit ClaimSettled(_claimId);\n    }\n}\n",
  "sourcePath": "/Users/gustavahlstrom/Desktop/insurance-smart-contracts/contracts/ClaimsProcessing.sol",
  "compiler": {
    "name": "solc",
    "version": "0.8.21+commit.d9974bed.Emscripten.clang"
  },
  "schemaVersion": "3.4.16",
  "updatedAt": "2024-07-07T13:53:42.338Z",
  "devdoc": {
    "kind": "dev",
    "methods": {},
    "version": 1
  },
  "userdoc": {
    "kind": "user",
    "methods": {},
    "version": 1
  }
}