{
  "contractName": "ClaimsProcessing",
  "abi": [
    {
      "inputs": [
        {
          "internalType": "address",
          "name": "_coreAddress",
          "type": "address"
        }
      ],
      "stateMutability": "nonpayable",
      "type": "constructor"
    },
    {
      "anonymous": false,
      "inputs": [
        {
          "indexed": false,
          "internalType": "uint256",
          "name": "claimId",
          "type": "uint256"
        },
        {
          "indexed": false,
          "internalType": "bool",
          "name": "success",
          "type": "bool"
        }
      ],
      "name": "ClaimProcessed",
      "type": "event"
    },
    {
      "anonymous": false,
      "inputs": [
        {
          "indexed": false,
          "internalType": "uint256",
          "name": "claimId",
          "type": "uint256"
        }
      ],
      "name": "ClaimSettled",
      "type": "event"
    },
    {
      "anonymous": false,
      "inputs": [
        {
          "indexed": false,
          "internalType": "uint256",
          "name": "claimId",
          "type": "uint256"
        },
        {
          "indexed": false,
          "internalType": "address",
          "name": "user",
          "type": "address"
        }
      ],
      "name": "ClaimSubmitted",
      "type": "event"
    },
    {
      "inputs": [],
      "name": "claimCount",
      "outputs": [
        {
          "internalType": "uint256",
          "name": "",
          "type": "uint256"
        }
      ],
      "stateMutability": "view",
      "type": "function",
      "constant": true
    },
    {
      "inputs": [
        {
          "internalType": "uint256",
          "name": "",
          "type": "uint256"
        }
      ],
      "name": "claims",
      "outputs": [
        {
          "internalType": "address",
          "name": "user",
          "type": "address"
        },
        {
          "internalType": "uint256",
          "name": "policyId",
          "type": "uint256"
        },
        {
          "internalType": "bytes32",
          "name": "details",
          "type": "bytes32"
        },
        {
          "internalType": "bool",
          "name": "processed",
          "type": "bool"
        },
        {
          "internalType": "bool",
          "name": "settled",
          "type": "bool"
        }
      ],
      "stateMutability": "view",
      "type": "function",
      "constant": true
    },
    {
      "inputs": [
        {
          "internalType": "uint256",
          "name": "_policyId",
          "type": "uint256"
        },
        {
          "internalType": "bytes32",
          "name": "_details",
          "type": "bytes32"
        }
      ],
      "name": "submitClaim",
      "outputs": [],
      "stateMutability": "nonpayable",
      "type": "function"
    },
    {
      "inputs": [
        {
          "internalType": "uint256",
          "name": "_claimId",
          "type": "uint256"
        }
      ],
      "name": "processClaim",
      "outputs": [],
      "stateMutability": "nonpayable",
      "type": "function"
    },
    {
      "inputs": [
        {
          "internalType": "uint256",
          "name": "_claimId",
          "type": "uint256"
        }
      ],
      "name": "settleClaim",
      "outputs": [],
      "stateMutability": "nonpayable",
      "type": "function"
    }
  ],
  "bytecode": "0x608060405234801561001057600080fd5b506040516106e13803806106e183398101604081905261002f91610054565b600080546001600160a01b0319166001600160a01b0392909216919091179055610084565b60006020828403121561006657600080fd5b81516001600160a01b038116811461007d57600080fd5b9392505050565b61064e806100936000396000f3fe608060405234801561001057600080fd5b50600436106100575760003560e01c80637257dfc91461005c5780638da4d3c914610071578063a0c222b41461008d578063a888c2cd146100a0578063e406f1d814610124575b600080fd5b61006f61006a36600461055d565b610137565b005b61007a60025481565b6040519081526020015b60405180910390f35b61006f61009b366004610576565b61027c565b6100ee6100ae36600461055d565b600160208190526000918252604090912080549181015460028201546003909201546001600160a01b039093169290919060ff8082169161010090041685565b604080516001600160a01b039096168652602086019490945292840191909152151560608301521515608082015260a001610084565b61006f61013236600461055d565b6103de565b60005460405163077ec1d960e41b81523360048201526001600160a01b03909116906377ec1d9090602401602060405180830381865afa15801561017f573d6000803e3d6000fd5b505050506040513d601f19601f820116820180604052508101906101a39190610598565b6101c85760405162461bcd60e51b81526004016101bf906105c1565b60405180910390fd5b6000818152600160205260409020600381015460ff161561022b5760405162461bcd60e51b815260206004820152601760248201527f436c61696d20616c72656164792070726f63657373656400000000000000000060448201526064016101bf565b60038101805460ff191660019081179091556040805184815260208101929092527fd4203892740c26c8184cfb101077c87ccf2d01beaf6aef0c250ab43bb43df20291015b60405180910390a15050565b60005460405163077ec1d960e41b81523360048201526001600160a01b03909116906377ec1d9090602401602060405180830381865afa1580156102c4573d6000803e3d6000fd5b505050506040513d601f19601f820116820180604052508101906102e89190610598565b6103045760405162461bcd60e51b81526004016101bf906105c1565b60028054906000610314836105f1565b90915550506040805160a081018252338082526020808301868152838501868152600060608601818152608087018281526002805484526001808852938a9020985189546001600160a01b0319166001600160a01b03909116178955945192880192909255915186840155905160039095018054915161ffff1990921695151561ff00191695909517610100911515919091021790935591548351908152918201527f4dfa1d399fc3d748dfe023239c274bdaa380853d97eec367121715b4659d7fdb9101610270565b60005460405163077ec1d960e41b81523360048201526001600160a01b03909116906377ec1d9090602401602060405180830381865afa158015610426573d6000803e3d6000fd5b505050506040513d601f19601f8201168201806040525081019061044a9190610598565b6104665760405162461bcd60e51b81526004016101bf906105c1565b6000818152600160205260409020600381015460ff166104c85760405162461bcd60e51b815260206004820152601760248201527f436c61696d206e6f742070726f6365737365642079657400000000000000000060448201526064016101bf565b6003810154610100900460ff161561051a5760405162461bcd60e51b815260206004820152601560248201527410db185a5b48185b1c9958591e481cd95d1d1b1959605a1b60448201526064016101bf565b60038101805461ff0019166101001790556040517f08b0d454f7f4ff4f1fd54b22b45c916ac65631587fc0a6f59e8fa5a54c7c80b1906102709084815260200190565b60006020828403121561056f57600080fd5b5035919050565b6000806040838503121561058957600080fd5b50508035926020909101359150565b6000602082840312156105aa57600080fd5b815180151581146105ba57600080fd5b9392505050565b602080825260169082015275155cd95c881b9bdd08185d5d1a195b9d1a58d85d195960521b604082015260600190565b60006001820161061157634e487b7160e01b600052601160045260246000fd5b506001019056fea2646970667358221220f944d805d74ff14c7f06d1ac4c90f0d53959faf7529644e8ffa5d77223be1fef64736f6c63430008150033",
  "immutableReferences": {},
  "source": "// SPDX-License-Identifier: UNLICENSED\n\npragma solidity ^0.8.21;\n\nimport \"./CoreContract.sol\";\n\ncontract ClaimsProcessing {\n    CoreContract core;\n    mapping(uint256 => Claim) public claims;\n    uint256 public claimCount;\n    event ClaimSubmitted(uint256 claimId, address user);\n    event ClaimProcessed(uint256 claimId, bool success);\n    event ClaimSettled(uint256 claimId);\n\n    struct Claim {\n        address user;\n        uint256 policyId;\n        bytes32 details;\n        bool processed;\n        bool settled;\n    }\n\n    modifier onlyRegisteredUser() {\n        require(core.authenticateUser(msg.sender), \"User not authenticated\");\n        _;\n    }\n\n    constructor(address _coreAddress) {\n        core = CoreContract(_coreAddress);\n    }\n\n    function submitClaim(uint256 _policyId, bytes32 _details) public onlyRegisteredUser {\n        claimCount++;\n        claims[claimCount] = Claim(msg.sender, _policyId, _details, false, false);\n        emit ClaimSubmitted(claimCount, msg.sender);\n    }\n\n    function processClaim(uint256 _claimId) public onlyRegisteredUser {\n        Claim storage claim = claims[_claimId];\n        require(!claim.processed, \"Claim already processed\");\n        // Add processing logic here\n        claim.processed = true;\n        emit ClaimProcessed(_claimId, true);\n    }\n\n    function settleClaim(uint256 _claimId) public onlyRegisteredUser {\n        Claim storage claim = claims[_claimId];\n        require(claim.processed, \"Claim not processed yet\");\n        require(!claim.settled, \"Claim already settled\");\n        // Add settlement logic here\n        claim.settled = true;\n        emit ClaimSettled(_claimId);\n    }\n}\n",
  "sourcePath": "/Users/gustavahlstrom/Desktop/insurance-smart-contracts/contracts/ClaimsProcessing.sol",
  "compiler": {
    "name": "solc",
    "version": "0.8.21+commit.d9974bed.Emscripten.clang"
  },
  "schemaVersion": "3.4.16",
  "updatedAt": "2024-08-11T09:52:23.278Z",
  "networkType": "ethereum",
  "devdoc": {
    "kind": "dev",
    "methods": {},
    "version": 1
  },
  "userdoc": {
    "kind": "user",
    "methods": {},
    "version": 1
  }
}