{
  "contractName": "Compliance",
  "abi": [
    {
      "inputs": [
        {
          "internalType": "address",
          "name": "_coreAddress",
          "type": "address"
        }
      ],
      "stateMutability": "nonpayable",
      "type": "constructor"
    },
    {
      "anonymous": false,
      "inputs": [
        {
          "indexed": false,
          "internalType": "address",
          "name": "user",
          "type": "address"
        },
        {
          "indexed": false,
          "internalType": "string",
          "name": "report",
          "type": "string"
        }
      ],
      "name": "ComplianceReportGenerated",
      "type": "event"
    },
    {
      "anonymous": false,
      "inputs": [
        {
          "indexed": false,
          "internalType": "address",
          "name": "user",
          "type": "address"
        },
        {
          "indexed": false,
          "internalType": "bool",
          "name": "compliant",
          "type": "bool"
        }
      ],
      "name": "GDPRComplianceChecked",
      "type": "event"
    },
    {
      "anonymous": false,
      "inputs": [
        {
          "indexed": false,
          "internalType": "bytes32",
          "name": "transactionId",
          "type": "bytes32"
        },
        {
          "indexed": false,
          "internalType": "bool",
          "name": "success",
          "type": "bool"
        }
      ],
      "name": "TransactionAudited",
      "type": "event"
    },
    {
      "inputs": [
        {
          "internalType": "address",
          "name": "user",
          "type": "address"
        }
      ],
      "name": "checkGDPRCompliance",
      "outputs": [
        {
          "internalType": "bool",
          "name": "",
          "type": "bool"
        }
      ],
      "stateMutability": "nonpayable",
      "type": "function"
    },
    {
      "inputs": [
        {
          "internalType": "bytes32",
          "name": "transactionId",
          "type": "bytes32"
        }
      ],
      "name": "auditTransaction",
      "outputs": [
        {
          "internalType": "bool",
          "name": "",
          "type": "bool"
        }
      ],
      "stateMutability": "nonpayable",
      "type": "function"
    },
    {
      "inputs": [
        {
          "internalType": "address",
          "name": "user",
          "type": "address"
        }
      ],
      "name": "generateComplianceReport",
      "outputs": [
        {
          "internalType": "string",
          "name": "",
          "type": "string"
        }
      ],
      "stateMutability": "nonpayable",
      "type": "function"
    }
  ],
  "bytecode": "0x608060405234801561000f575f80fd5b50604051610683380380610683833981810160405281019061003191906100d4565b805f806101000a81548173ffffffffffffffffffffffffffffffffffffffff021916908373ffffffffffffffffffffffffffffffffffffffff160217905550506100ff565b5f80fd5b5f73ffffffffffffffffffffffffffffffffffffffff82169050919050565b5f6100a38261007a565b9050919050565b6100b381610099565b81146100bd575f80fd5b50565b5f815190506100ce816100aa565b92915050565b5f602082840312156100e9576100e8610076565b5b5f6100f6848285016100c0565b91505092915050565b6105778061010c5f395ff3fe608060405234801561000f575f80fd5b506004361061003f575f3560e01c80632e995bde146100435780633643220e14610073578063ca2d61f2146100a3575b5f80fd5b61005d600480360381019061005891906102d3565b6100d3565b60405161006a9190610388565b60405180910390f35b61008d600480360381019061008891906103db565b610150565b60405161009a9190610420565b60405180910390f35b6100bd60048036038101906100b891906102d3565b610198565b6040516100ca9190610420565b60405180910390f35b60605f6040518060400160405280601a81526020017f436f6d706c69616e6365207265706f727420666f72207573657200000000000081525090507fc5805e0467e2d73ccbc8ff60b7513246dc7d345ad73f93e3abda4dadec253a49838260405161013f929190610448565b60405180910390a180915050919050565b5f80600190507ffafc6a45357c6ef29877caeecf26ea604c5f6505a32b4db5636bd7e9c30c8ccd8382604051610187929190610485565b60405180910390a180915050919050565b5f805f8054906101000a900473ffffffffffffffffffffffffffffffffffffffff1673ffffffffffffffffffffffffffffffffffffffff166377ec1d90846040518263ffffffff1660e01b81526004016101f291906104ac565b602060405180830381865afa15801561020d573d5f803e3d5ffd5b505050506040513d601f19601f8201168201806040525081019061023191906104ef565b90507f535d7024a1151e802378e24c6e5292be9467c6310e6599b2a4854f4fa24807f7838260405161026492919061051a565b60405180910390a180915050919050565b5f80fd5b5f73ffffffffffffffffffffffffffffffffffffffff82169050919050565b5f6102a282610279565b9050919050565b6102b281610298565b81146102bc575f80fd5b50565b5f813590506102cd816102a9565b92915050565b5f602082840312156102e8576102e7610275565b5b5f6102f5848285016102bf565b91505092915050565b5f81519050919050565b5f82825260208201905092915050565b5f5b8381101561033557808201518184015260208101905061031a565b5f8484015250505050565b5f601f19601f8301169050919050565b5f61035a826102fe565b6103648185610308565b9350610374818560208601610318565b61037d81610340565b840191505092915050565b5f6020820190508181035f8301526103a08184610350565b905092915050565b5f819050919050565b6103ba816103a8565b81146103c4575f80fd5b50565b5f813590506103d5816103b1565b92915050565b5f602082840312156103f0576103ef610275565b5b5f6103fd848285016103c7565b91505092915050565b5f8115159050919050565b61041a81610406565b82525050565b5f6020820190506104335f830184610411565b92915050565b61044281610298565b82525050565b5f60408201905061045b5f830185610439565b818103602083015261046d8184610350565b90509392505050565b61047f816103a8565b82525050565b5f6040820190506104985f830185610476565b6104a56020830184610411565b9392505050565b5f6020820190506104bf5f830184610439565b92915050565b6104ce81610406565b81146104d8575f80fd5b50565b5f815190506104e9816104c5565b92915050565b5f6020828403121561050457610503610275565b5b5f610511848285016104db565b91505092915050565b5f60408201905061052d5f830185610439565b61053a6020830184610411565b939250505056fea2646970667358221220734fd6fa572b45fe33dd8f0526110d66a4ce5ce08dd96a7d63cff92bcf082dca64736f6c63430008150033",
  "immutableReferences": {},
  "source": "// SPDX-License-Identifier: UNLICENSED\n\npragma solidity ^0.8.21;\n\nimport \"./CoreContract.sol\";\n\ncontract Compliance {\n    CoreContract core;\n    event GDPRComplianceChecked(address user, bool compliant);\n    event TransactionAudited(bytes32 transactionId, bool success);\n    event ComplianceReportGenerated(address user, string report);\n\n    constructor(address _coreAddress) {\n        core = CoreContract(_coreAddress);\n    }\n\n    function checkGDPRCompliance(address user) public returns (bool) {\n        bool compliant = core.authenticateUser(user);\n        emit GDPRComplianceChecked(user, compliant);\n        return compliant;\n    }\n\n    function auditTransaction(bytes32 transactionId) public returns (bool) {\n        bool success = true; // placeholder logic\n        emit TransactionAudited(transactionId, success);\n        return success;\n    }\n\n    function generateComplianceReport(address user) public returns (string memory) {\n        string memory report = \"Compliance report for user\"; // placeholder logic\n        emit ComplianceReportGenerated(user, report);\n        return report;\n    }\n}\n\n",
  "sourcePath": "/Users/gustavahlstrom/Desktop/insurance-smart-contracts/contracts/Compliance.sol",
  "compiler": {
    "name": "solc",
    "version": "0.8.21+commit.d9974bed.Emscripten.clang"
  },
  "schemaVersion": "3.4.16",
  "updatedAt": "2024-07-07T13:53:42.356Z",
  "devdoc": {
    "kind": "dev",
    "methods": {},
    "version": 1
  },
  "userdoc": {
    "kind": "user",
    "methods": {},
    "version": 1
  }
}