{
  "contractName": "CoreContract",
  "abi": [
    {
      "inputs": [],
      "stateMutability": "nonpayable",
      "type": "constructor"
    },
    {
      "anonymous": false,
      "inputs": [
        {
          "indexed": false,
          "internalType": "address",
          "name": "user",
          "type": "address"
        }
      ],
      "name": "UserRegistered",
      "type": "event"
    },
    {
      "inputs": [],
      "name": "owner",
      "outputs": [
        {
          "internalType": "address",
          "name": "",
          "type": "address"
        }
      ],
      "stateMutability": "view",
      "type": "function"
    },
    {
      "inputs": [
        {
          "internalType": "address",
          "name": "",
          "type": "address"
        }
      ],
      "name": "registeredUsers",
      "outputs": [
        {
          "internalType": "bool",
          "name": "",
          "type": "bool"
        }
      ],
      "stateMutability": "view",
      "type": "function"
    },
    {
      "inputs": [
        {
          "internalType": "address",
          "name": "_user",
          "type": "address"
        }
      ],
      "name": "registerUser",
      "outputs": [],
      "stateMutability": "nonpayable",
      "type": "function"
    },
    {
      "inputs": [
        {
          "internalType": "address",
          "name": "_user",
          "type": "address"
        }
      ],
      "name": "authenticateUser",
      "outputs": [
        {
          "internalType": "bool",
          "name": "",
          "type": "bool"
        }
      ],
      "stateMutability": "view",
      "type": "function"
    }
  ],
  "bytecode": "0x608060405234801561000f575f80fd5b50335f806101000a81548173ffffffffffffffffffffffffffffffffffffffff021916908373ffffffffffffffffffffffffffffffffffffffff16021790555061044d8061005c5f395ff3fe608060405234801561000f575f80fd5b506004361061004a575f3560e01c80630e50cee51461004e5780632199d5cd1461007e57806377ec1d901461009a5780638da5cb5b146100ca575b5f80fd5b610068600480360381019061006391906102f3565b6100e8565b6040516100759190610338565b60405180910390f35b610098600480360381019061009391906102f3565b610105565b005b6100b460048036038101906100af91906102f3565b610220565b6040516100c19190610338565b60405180910390f35b6100d2610272565b6040516100df9190610360565b60405180910390f35b6001602052805f5260405f205f915054906101000a900460ff1681565b5f8054906101000a900473ffffffffffffffffffffffffffffffffffffffff1673ffffffffffffffffffffffffffffffffffffffff163373ffffffffffffffffffffffffffffffffffffffff1614610192576040517f08c379a0000000000000000000000000000000000000000000000000000000008152600401610189906103f9565b60405180910390fd5b6001805f8373ffffffffffffffffffffffffffffffffffffffff1673ffffffffffffffffffffffffffffffffffffffff1681526020019081526020015f205f6101000a81548160ff0219169083151502179055507f54db7a5cb4735e1aac1f53db512d3390390bb6637bd30ad4bf9fc98667d9b9b9816040516102159190610360565b60405180910390a150565b5f60015f8373ffffffffffffffffffffffffffffffffffffffff1673ffffffffffffffffffffffffffffffffffffffff1681526020019081526020015f205f9054906101000a900460ff169050919050565b5f8054906101000a900473ffffffffffffffffffffffffffffffffffffffff1681565b5f80fd5b5f73ffffffffffffffffffffffffffffffffffffffff82169050919050565b5f6102c282610299565b9050919050565b6102d2816102b8565b81146102dc575f80fd5b50565b5f813590506102ed816102c9565b92915050565b5f6020828403121561030857610307610295565b5b5f610315848285016102df565b91505092915050565b5f8115159050919050565b6103328161031e565b82525050565b5f60208201905061034b5f830184610329565b92915050565b61035a816102b8565b82525050565b5f6020820190506103735f830184610351565b92915050565b5f82825260208201905092915050565b7f4f6e6c79206f776e65722063616e2063616c6c20746869732066756e6374696f5f8201527f6e00000000000000000000000000000000000000000000000000000000000000602082015250565b5f6103e3602183610379565b91506103ee82610389565b604082019050919050565b5f6020820190508181035f830152610410816103d7565b905091905056fea2646970667358221220984c2942676ddc3385fdbdd10e7b6d965f590f5fa5cb11ece99e2cda73d7b23864736f6c63430008150033",
  "immutableReferences": {},
  "source": "// SPDX-License-Identifier: UNLICENSED\n\npragma solidity ^0.8.21;\n\ncontract CoreContract {\n    address public owner;\n    mapping(address => bool) public registeredUsers;\n    event UserRegistered(address user);\n    \n    modifier onlyOwner() {\n        require(msg.sender == owner, \"Only owner can call this function\");\n        _;\n    }\n\n    constructor() {\n        owner = msg.sender;\n    }\n\n    function registerUser(address _user) public onlyOwner {\n        registeredUsers[_user] = true;\n        emit UserRegistered(_user);\n    }\n\n    function authenticateUser(address _user) public view returns (bool) {\n        return registeredUsers[_user];\n    }\n}\n",
  "sourcePath": "/Users/gustavahlstrom/Desktop/insurance-smart-contracts/contracts/CoreContract.sol",
  "compiler": {
    "name": "solc",
    "version": "0.8.21+commit.d9974bed.Emscripten.clang"
  },
  "schemaVersion": "3.4.16",
  "updatedAt": "2024-07-07T13:53:42.365Z",
  "devdoc": {
    "kind": "dev",
    "methods": {},
    "version": 1
  },
  "userdoc": {
    "kind": "user",
    "methods": {},
    "version": 1
  }
}