{
  "contractName": "CoreContract",
  "abi": [
    {
      "inputs": [],
      "stateMutability": "nonpayable",
      "type": "constructor"
    },
    {
      "anonymous": false,
      "inputs": [
        {
          "indexed": false,
          "internalType": "address",
          "name": "user",
          "type": "address"
        }
      ],
      "name": "UserRegistered",
      "type": "event"
    },
    {
      "inputs": [],
      "name": "owner",
      "outputs": [
        {
          "internalType": "address",
          "name": "",
          "type": "address"
        }
      ],
      "stateMutability": "view",
      "type": "function",
      "constant": true
    },
    {
      "inputs": [
        {
          "internalType": "address",
          "name": "",
          "type": "address"
        }
      ],
      "name": "registeredUsers",
      "outputs": [
        {
          "internalType": "bool",
          "name": "",
          "type": "bool"
        }
      ],
      "stateMutability": "view",
      "type": "function",
      "constant": true
    },
    {
      "inputs": [
        {
          "internalType": "address",
          "name": "_user",
          "type": "address"
        }
      ],
      "name": "registerUser",
      "outputs": [],
      "stateMutability": "nonpayable",
      "type": "function"
    },
    {
      "inputs": [
        {
          "internalType": "address",
          "name": "_user",
          "type": "address"
        }
      ],
      "name": "authenticateUser",
      "outputs": [
        {
          "internalType": "bool",
          "name": "",
          "type": "bool"
        }
      ],
      "stateMutability": "view",
      "type": "function",
      "constant": true
    }
  ],
  "bytecode": "0x608060405234801561001057600080fd5b50600080546001600160a01b0319163317905561021e806100326000396000f3fe608060405234801561001057600080fd5b506004361061004c5760003560e01c80630e50cee5146100515780632199d5cd1461008957806377ec1d901461009e5780638da5cb5b146100ca575b600080fd5b61007461005f3660046101b8565b60016020526000908152604090205460ff1681565b60405190151581526020015b60405180910390f35b61009c6100973660046101b8565b6100f5565b005b6100746100ac3660046101b8565b6001600160a01b031660009081526001602052604090205460ff1690565b6000546100dd906001600160a01b031681565b6040516001600160a01b039091168152602001610080565b6000546001600160a01b0316331461015d5760405162461bcd60e51b815260206004820152602160248201527f4f6e6c79206f776e65722063616e2063616c6c20746869732066756e6374696f6044820152603760f91b606482015260840160405180910390fd5b6001600160a01b038116600081815260016020818152604092839020805460ff191690921790915590519182527f54db7a5cb4735e1aac1f53db512d3390390bb6637bd30ad4bf9fc98667d9b9b9910160405180910390a150565b6000602082840312156101ca57600080fd5b81356001600160a01b03811681146101e157600080fd5b939250505056fea26469706673582212200d591ef7d2e66bf8764f6712a91e44befc5daff6f21284e010df31f3db5c5ffa64736f6c63430008150033",
  "immutableReferences": {},
  "source": "// SPDX-License-Identifier: UNLICENSED\n\npragma solidity ^0.8.21;\n\ncontract CoreContract {\n    address public owner;\n    mapping(address => bool) public registeredUsers;\n    event UserRegistered(address user);\n    \n    modifier onlyOwner() {\n        require(msg.sender == owner, \"Only owner can call this function\");\n        _;\n    }\n\n    constructor() {\n        owner = msg.sender;\n    }\n\n    function registerUser(address _user) public onlyOwner {\n        registeredUsers[_user] = true;\n        emit UserRegistered(_user);\n    }\n\n    function authenticateUser(address _user) public view returns (bool) {\n        return registeredUsers[_user];\n    }\n}\n",
  "sourcePath": "/Users/gustavahlstrom/Desktop/insurance-smart-contracts/contracts/CoreContract.sol",
  "compiler": {
    "name": "solc",
    "version": "0.8.21+commit.d9974bed.Emscripten.clang"
  },
  "schemaVersion": "3.4.16",
  "updatedAt": "2024-08-11T09:52:23.272Z",
  "networkType": "ethereum",
  "devdoc": {
    "kind": "dev",
    "methods": {},
    "version": 1
  },
  "userdoc": {
    "kind": "user",
    "methods": {},
    "version": 1
  }
}