{
  "contractName": "CustomizableCoverage",
  "abi": [
    {
      "inputs": [
        {
          "internalType": "address",
          "name": "_coreAddress",
          "type": "address"
        }
      ],
      "stateMutability": "nonpayable",
      "type": "constructor"
    },
    {
      "anonymous": false,
      "inputs": [
        {
          "indexed": false,
          "internalType": "address",
          "name": "user",
          "type": "address"
        },
        {
          "indexed": false,
          "internalType": "uint256",
          "name": "policyId",
          "type": "uint256"
        }
      ],
      "name": "PolicyCreated",
      "type": "event"
    },
    {
      "anonymous": false,
      "inputs": [
        {
          "indexed": false,
          "internalType": "address",
          "name": "user",
          "type": "address"
        },
        {
          "indexed": false,
          "internalType": "uint256",
          "name": "policyId",
          "type": "uint256"
        }
      ],
      "name": "PolicyUpdated",
      "type": "event"
    },
    {
      "inputs": [
        {
          "internalType": "address",
          "name": "",
          "type": "address"
        }
      ],
      "name": "policies",
      "outputs": [
        {
          "internalType": "uint256",
          "name": "id",
          "type": "uint256"
        },
        {
          "internalType": "bytes32",
          "name": "coverageDetails",
          "type": "bytes32"
        },
        {
          "internalType": "uint256",
          "name": "premium",
          "type": "uint256"
        }
      ],
      "stateMutability": "view",
      "type": "function"
    },
    {
      "inputs": [
        {
          "internalType": "bytes32",
          "name": "coverageDetails",
          "type": "bytes32"
        },
        {
          "internalType": "uint256",
          "name": "premium",
          "type": "uint256"
        }
      ],
      "name": "createCustomPolicy",
      "outputs": [],
      "stateMutability": "nonpayable",
      "type": "function"
    },
    {
      "inputs": [
        {
          "internalType": "bytes32",
          "name": "newCoverageDetails",
          "type": "bytes32"
        },
        {
          "internalType": "uint256",
          "name": "newPremium",
          "type": "uint256"
        }
      ],
      "name": "updatePolicy",
      "outputs": [],
      "stateMutability": "nonpayable",
      "type": "function"
    },
    {
      "inputs": [
        {
          "internalType": "address",
          "name": "user",
          "type": "address"
        }
      ],
      "name": "getPolicyDetails",
      "outputs": [
        {
          "components": [
            {
              "internalType": "uint256",
              "name": "id",
              "type": "uint256"
            },
            {
              "internalType": "bytes32",
              "name": "coverageDetails",
              "type": "bytes32"
            },
            {
              "internalType": "uint256",
              "name": "premium",
              "type": "uint256"
            }
          ],
          "internalType": "struct CustomizableCoverage.Policy",
          "name": "",
          "type": "tuple"
        }
      ],
      "stateMutability": "view",
      "type": "function"
    }
  ],
  "bytecode": "0x608060405234801561000f575f80fd5b506040516108f63803806108f6833981810160405281019061003191906100d4565b805f806101000a81548173ffffffffffffffffffffffffffffffffffffffff021916908373ffffffffffffffffffffffffffffffffffffffff160217905550506100ff565b5f80fd5b5f73ffffffffffffffffffffffffffffffffffffffff82169050919050565b5f6100a38261007a565b9050919050565b6100b381610099565b81146100bd575f80fd5b50565b5f815190506100ce816100aa565b92915050565b5f602082840312156100e9576100e8610076565b5b5f6100f6848285016100c0565b91505092915050565b6107ea8061010c5f395ff3fe608060405234801561000f575f80fd5b506004361061004a575f3560e01c806320e986981461004e57806345f23e29146100805780636d90d8ad146100b0578063945f84a5146100cc575b5f80fd5b610068600480360381019061006391906104f4565b6100e8565b6040516100779392919061054f565b60405180910390f35b61009a600480360381019061009591906104f4565b61010e565b6040516100a791906105e2565b60405180910390f35b6100ca60048036038101906100c5919061064f565b610182565b005b6100e660048036038101906100e1919061064f565b6102eb565b005b6001602052805f5260405f205f91509050805f0154908060010154908060020154905083565b610116610475565b60015f8373ffffffffffffffffffffffffffffffffffffffff1673ffffffffffffffffffffffffffffffffffffffff1681526020019081526020015f206040518060600160405290815f8201548152602001600182015481526020016002820154815250509050919050565b5f8054906101000a900473ffffffffffffffffffffffffffffffffffffffff1673ffffffffffffffffffffffffffffffffffffffff166377ec1d90336040518263ffffffff1660e01b81526004016101da919061069c565b602060405180830381865afa1580156101f5573d5f803e3d5ffd5b505050506040513d601f19601f8201168201806040525081019061021991906106ea565b610258576040517f08c379a000000000000000000000000000000000000000000000000000000000815260040161024f9061076f565b60405180910390fd5b5f60015f3373ffffffffffffffffffffffffffffffffffffffff1673ffffffffffffffffffffffffffffffffffffffff1681526020019081526020015f2090508281600101819055508181600201819055507f6d69364a3d2877037e33cea027500f2c22234886348c83cca1207d145b52bb2333825f01546040516102de92919061078d565b60405180910390a1505050565b5f8054906101000a900473ffffffffffffffffffffffffffffffffffffffff1673ffffffffffffffffffffffffffffffffffffffff166377ec1d90336040518263ffffffff1660e01b8152600401610343919061069c565b602060405180830381865afa15801561035e573d5f803e3d5ffd5b505050506040513d601f19601f8201168201806040525081019061038291906106ea565b6103c1576040517f08c379a00000000000000000000000000000000000000000000000000000000081526004016103b89061076f565b60405180910390fd5b60405180606001604052804281526020018381526020018281525060015f3373ffffffffffffffffffffffffffffffffffffffff1673ffffffffffffffffffffffffffffffffffffffff1681526020019081526020015f205f820151815f015560208201518160010155604082015181600201559050507f0c82a59457f321d45ec38f6aaf95786bb68907c4273ed492d000832b5951c486334260405161046992919061078d565b60405180910390a15050565b60405180606001604052805f81526020015f80191681526020015f81525090565b5f80fd5b5f73ffffffffffffffffffffffffffffffffffffffff82169050919050565b5f6104c38261049a565b9050919050565b6104d3816104b9565b81146104dd575f80fd5b50565b5f813590506104ee816104ca565b92915050565b5f6020828403121561050957610508610496565b5b5f610516848285016104e0565b91505092915050565b5f819050919050565b6105318161051f565b82525050565b5f819050919050565b61054981610537565b82525050565b5f6060820190506105625f830186610528565b61056f6020830185610540565b61057c6040830184610528565b949350505050565b61058d8161051f565b82525050565b61059c81610537565b82525050565b606082015f8201516105b65f850182610584565b5060208201516105c96020850182610593565b5060408201516105dc6040850182610584565b50505050565b5f6060820190506105f55f8301846105a2565b92915050565b61060481610537565b811461060e575f80fd5b50565b5f8135905061061f816105fb565b92915050565b61062e8161051f565b8114610638575f80fd5b50565b5f8135905061064981610625565b92915050565b5f806040838503121561066557610664610496565b5b5f61067285828601610611565b92505060206106838582860161063b565b9150509250929050565b610696816104b9565b82525050565b5f6020820190506106af5f83018461068d565b92915050565b5f8115159050919050565b6106c9816106b5565b81146106d3575f80fd5b50565b5f815190506106e4816106c0565b92915050565b5f602082840312156106ff576106fe610496565b5b5f61070c848285016106d6565b91505092915050565b5f82825260208201905092915050565b7f55736572206e6f742061757468656e74696361746564000000000000000000005f82015250565b5f610759601683610715565b915061076482610725565b602082019050919050565b5f6020820190508181035f8301526107868161074d565b9050919050565b5f6040820190506107a05f83018561068d565b6107ad6020830184610528565b939250505056fea2646970667358221220beec5a496eb0cbc2ef3456940517e9cf074e15ddda27685ea02f386739ba6ed264736f6c63430008150033",
  "immutableReferences": {},
  "source": "// SPDX-License-Identifier: UNLICENSED\n\npragma solidity ^0.8.21;\n\nimport \"./CoreContract.sol\";\n\ncontract CustomizableCoverage {\n    CoreContract core;\n    mapping(address => Policy) public policies;\n    event PolicyCreated(address user, uint256 policyId);\n    event PolicyUpdated(address user, uint256 policyId);\n\n    struct Policy {\n        uint256 id;\n        bytes32 coverageDetails;\n        uint256 premium;\n    }\n\n    modifier onlyRegisteredUser() {\n        require(core.authenticateUser(msg.sender), \"User not authenticated\");\n        _;\n    }\n\n    constructor(address _coreAddress) {\n        core = CoreContract(_coreAddress);\n    }\n\n    function createCustomPolicy(bytes32 coverageDetails, uint256 premium) public onlyRegisteredUser {\n        policies[msg.sender] = Policy({\n            id: block.timestamp, // using timestamp as a simple unique identifier\n            coverageDetails: coverageDetails,\n            premium: premium\n        });\n        emit PolicyCreated(msg.sender, block.timestamp);\n    }\n\n    function updatePolicy(bytes32 newCoverageDetails, uint256 newPremium) public onlyRegisteredUser {\n        Policy storage policy = policies[msg.sender];\n        policy.coverageDetails = newCoverageDetails;\n        policy.premium = newPremium;\n        emit PolicyUpdated(msg.sender, policy.id);\n    }\n\n    function getPolicyDetails(address user) public view returns (Policy memory) {\n        return policies[user];\n    }\n}\n",
  "sourcePath": "/Users/gustavahlstrom/Desktop/insurance-smart-contracts/contracts/CustomizableCoverage.sol",
  "compiler": {
    "name": "solc",
    "version": "0.8.21+commit.d9974bed.Emscripten.clang"
  },
  "schemaVersion": "3.4.16",
  "updatedAt": "2024-07-07T13:53:42.371Z",
  "devdoc": {
    "kind": "dev",
    "methods": {},
    "version": 1
  },
  "userdoc": {
    "kind": "user",
    "methods": {},
    "version": 1
  }
}