{
  "contractName": "DataStorage",
  "abi": [
    {
      "anonymous": false,
      "inputs": [
        {
          "indexed": true,
          "internalType": "bytes32",
          "name": "key",
          "type": "bytes32"
        }
      ],
      "name": "DataDeleted",
      "type": "event"
    },
    {
      "anonymous": false,
      "inputs": [
        {
          "indexed": true,
          "internalType": "bytes32",
          "name": "key",
          "type": "bytes32"
        },
        {
          "indexed": false,
          "internalType": "bytes",
          "name": "value",
          "type": "bytes"
        }
      ],
      "name": "DataStored",
      "type": "event"
    },
    {
      "inputs": [
        {
          "internalType": "bytes32",
          "name": "key",
          "type": "bytes32"
        },
        {
          "internalType": "bytes",
          "name": "value",
          "type": "bytes"
        }
      ],
      "name": "storeData",
      "outputs": [],
      "stateMutability": "nonpayable",
      "type": "function"
    },
    {
      "inputs": [
        {
          "internalType": "bytes32",
          "name": "key",
          "type": "bytes32"
        }
      ],
      "name": "retrieveData",
      "outputs": [
        {
          "internalType": "bytes",
          "name": "",
          "type": "bytes"
        }
      ],
      "stateMutability": "view",
      "type": "function"
    },
    {
      "inputs": [
        {
          "internalType": "bytes32",
          "name": "key",
          "type": "bytes32"
        }
      ],
      "name": "deleteData",
      "outputs": [],
      "stateMutability": "nonpayable",
      "type": "function"
    }
  ],
  "bytecode": "0x608060405234801561000f575f80fd5b506107ef8061001d5f395ff3fe608060405234801561000f575f80fd5b506004361061003f575f3560e01c806345e12b5d1461004357806386911cde146100735780639730174d1461008f575b5f80fd5b61005d6004803603810190610058919061028c565b6100ab565b60405161006a9190610341565b60405180910390f35b61008d6004803603810190610088919061028c565b61014b565b005b6100a960048036038101906100a4919061048d565b610196565b005b60605f808381526020019081526020015f2080546100c890610514565b80601f01602080910402602001604051908101604052809291908181526020018280546100f490610514565b801561013f5780601f106101165761010080835404028352916020019161013f565b820191905f5260205f20905b81548152906001019060200180831161012257829003601f168201915b50505050509050919050565b5f808281526020019081526020015f205f61016691906101f0565b807f5236602858fa598e0b1c0f4eab28a46d135d76a3a28731d8dca95bc52c91bc3360405160405180910390a250565b805f808481526020019081526020015f2090816101b391906106ea565b50817fe0cd72854b165a56970aac919a8e33f365bc6793f8bc65cc5f316334b576e2d4826040516101e49190610341565b60405180910390a25050565b5080546101fc90610514565b5f825580601f1061020d575061022a565b601f0160209004905f5260205f2090810190610229919061022d565b5b50565b5b80821115610244575f815f90555060010161022e565b5090565b5f604051905090565b5f80fd5b5f80fd5b5f819050919050565b61026b81610259565b8114610275575f80fd5b50565b5f8135905061028681610262565b92915050565b5f602082840312156102a1576102a0610251565b5b5f6102ae84828501610278565b91505092915050565b5f81519050919050565b5f82825260208201905092915050565b5f5b838110156102ee5780820151818401526020810190506102d3565b5f8484015250505050565b5f601f19601f8301169050919050565b5f610313826102b7565b61031d81856102c1565b935061032d8185602086016102d1565b610336816102f9565b840191505092915050565b5f6020820190508181035f8301526103598184610309565b905092915050565b5f80fd5b5f80fd5b7f4e487b71000000000000000000000000000000000000000000000000000000005f52604160045260245ffd5b61039f826102f9565b810181811067ffffffffffffffff821117156103be576103bd610369565b5b80604052505050565b5f6103d0610248565b90506103dc8282610396565b919050565b5f67ffffffffffffffff8211156103fb576103fa610369565b5b610404826102f9565b9050602081019050919050565b828183375f83830152505050565b5f61043161042c846103e1565b6103c7565b90508281526020810184848401111561044d5761044c610365565b5b610458848285610411565b509392505050565b5f82601f83011261047457610473610361565b5b813561048484826020860161041f565b91505092915050565b5f80604083850312156104a3576104a2610251565b5b5f6104b085828601610278565b925050602083013567ffffffffffffffff8111156104d1576104d0610255565b5b6104dd85828601610460565b9150509250929050565b7f4e487b71000000000000000000000000000000000000000000000000000000005f52602260045260245ffd5b5f600282049050600182168061052b57607f821691505b60208210810361053e5761053d6104e7565b5b50919050565b5f819050815f5260205f209050919050565b5f6020601f8301049050919050565b5f82821b905092915050565b5f600883026105a07fffffffffffffffffffffffffffffffffffffffffffffffffffffffffffffffff82610565565b6105aa8683610565565b95508019841693508086168417925050509392505050565b5f819050919050565b5f819050919050565b5f6105ee6105e96105e4846105c2565b6105cb565b6105c2565b9050919050565b5f819050919050565b610607836105d4565b61061b610613826105f5565b848454610571565b825550505050565b5f90565b61062f610623565b61063a8184846105fe565b505050565b5b8181101561065d576106525f82610627565b600181019050610640565b5050565b601f8211156106a25761067381610544565b61067c84610556565b8101602085101561068b578190505b61069f61069785610556565b83018261063f565b50505b505050565b5f82821c905092915050565b5f6106c25f19846008026106a7565b1980831691505092915050565b5f6106da83836106b3565b9150826002028217905092915050565b6106f3826102b7565b67ffffffffffffffff81111561070c5761070b610369565b5b6107168254610514565b610721828285610661565b5f60209050601f831160018114610752575f8415610740578287015190505b61074a85826106cf565b8655506107b1565b601f19841661076086610544565b5f5b8281101561078757848901518255600182019150602085019450602081019050610762565b868310156107a457848901516107a0601f8916826106b3565b8355505b6001600288020188555050505b50505050505056fea26469706673582212202b4480bd8ed22bb5b76ec0bf7d8a8609dacba079d04b825d03e18909e7f8e66364736f6c63430008150033",
  "immutableReferences": {},
  "source": "// SPDX-License-Identifier: UNLICENSED\n\npragma solidity ^0.8.21;\n\ncontract DataStorage {\n    mapping(bytes32 => bytes) private data;\n    event DataStored(bytes32 indexed key, bytes value);\n    event DataDeleted(bytes32 indexed key);\n\n    function storeData(bytes32 key, bytes memory value) public {\n        data[key] = value;\n        emit DataStored(key, value);\n    }\n\n    function retrieveData(bytes32 key) public view returns (bytes memory) {\n        return data[key];\n    }\n\n    function deleteData(bytes32 key) public {\n        delete data[key];\n        emit DataDeleted(key);\n    }\n}\n",
  "sourcePath": "/Users/gustavahlstrom/Desktop/insurance-smart-contracts/contracts/DataStorage.sol",
  "compiler": {
    "name": "solc",
    "version": "0.8.21+commit.d9974bed.Emscripten.clang"
  },
  "schemaVersion": "3.4.16",
  "updatedAt": "2024-07-07T13:53:42.381Z",
  "devdoc": {
    "kind": "dev",
    "methods": {},
    "version": 1
  },
  "userdoc": {
    "kind": "user",
    "methods": {},
    "version": 1
  }
}