{
  "contractName": "DataStorage",
  "abi": [
    {
      "anonymous": false,
      "inputs": [
        {
          "indexed": true,
          "internalType": "bytes32",
          "name": "key",
          "type": "bytes32"
        }
      ],
      "name": "DataDeleted",
      "type": "event"
    },
    {
      "anonymous": false,
      "inputs": [
        {
          "indexed": true,
          "internalType": "bytes32",
          "name": "key",
          "type": "bytes32"
        },
        {
          "indexed": false,
          "internalType": "bytes",
          "name": "value",
          "type": "bytes"
        }
      ],
      "name": "DataStored",
      "type": "event"
    },
    {
      "inputs": [
        {
          "internalType": "bytes32",
          "name": "key",
          "type": "bytes32"
        },
        {
          "internalType": "bytes",
          "name": "value",
          "type": "bytes"
        }
      ],
      "name": "storeData",
      "outputs": [],
      "stateMutability": "nonpayable",
      "type": "function"
    },
    {
      "inputs": [
        {
          "internalType": "bytes32",
          "name": "key",
          "type": "bytes32"
        }
      ],
      "name": "retrieveData",
      "outputs": [
        {
          "internalType": "bytes",
          "name": "",
          "type": "bytes"
        }
      ],
      "stateMutability": "view",
      "type": "function",
      "constant": true
    },
    {
      "inputs": [
        {
          "internalType": "bytes32",
          "name": "key",
          "type": "bytes32"
        }
      ],
      "name": "deleteData",
      "outputs": [],
      "stateMutability": "nonpayable",
      "type": "function"
    }
  ],
  "bytecode": "0x608060405234801561001057600080fd5b506104e0806100206000396000f3fe608060405234801561001057600080fd5b50600436106100415760003560e01c806345e12b5d1461004657806386911cde1461006f5780639730174d14610084575b600080fd5b610059610054366004610229565b610097565b6040516100669190610242565b60405180910390f35b61008261007d366004610229565b610139565b005b6100826100923660046102a6565b61017e565b60008181526020819052604090208054606091906100b490610361565b80601f01602080910402602001604051908101604052809291908181526020018280546100e090610361565b801561012d5780601f106101025761010080835404028352916020019161012d565b820191906000526020600020905b81548152906001019060200180831161011057829003601f168201915b50505050509050919050565b6000818152602081905260408120610150916101d3565b60405181907f5236602858fa598e0b1c0f4eab28a46d135d76a3a28731d8dca95bc52c91bc3390600090a250565b600082815260208190526040902061019682826103ea565b50817fe0cd72854b165a56970aac919a8e33f365bc6793f8bc65cc5f316334b576e2d4826040516101c79190610242565b60405180910390a25050565b5080546101df90610361565b6000825580601f106101ef575050565b601f01602090049060005260206000209081019061020d9190610210565b50565b5b808211156102255760008155600101610211565b5090565b60006020828403121561023b57600080fd5b5035919050565b600060208083528351808285015260005b8181101561026f57858101830151858201604001528201610253565b506000604082860101526040601f19601f8301168501019250505092915050565b634e487b7160e01b600052604160045260246000fd5b600080604083850312156102b957600080fd5b82359150602083013567ffffffffffffffff808211156102d857600080fd5b818501915085601f8301126102ec57600080fd5b8135818111156102fe576102fe610290565b604051601f8201601f19908116603f0116810190838211818310171561032657610326610290565b8160405282815288602084870101111561033f57600080fd5b8260208601602083013760006020848301015280955050505050509250929050565b600181811c9082168061037557607f821691505b60208210810361039557634e487b7160e01b600052602260045260246000fd5b50919050565b601f8211156103e557600081815260208120601f850160051c810160208610156103c25750805b601f850160051c820191505b818110156103e1578281556001016103ce565b5050505b505050565b815167ffffffffffffffff81111561040457610404610290565b610418816104128454610361565b8461039b565b602080601f83116001811461044d57600084156104355750858301515b600019600386901b1c1916600185901b1785556103e1565b600085815260208120601f198616915b8281101561047c5788860151825594840194600190910190840161045d565b508582101561049a5787850151600019600388901b60f8161c191681555b5050505050600190811b0190555056fea2646970667358221220dd57cfa697b6b761ecac97301b72b94132751d1a9311d2f170458b8e1975ca1a64736f6c63430008150033",
  "immutableReferences": {},
  "source": "// SPDX-License-Identifier: UNLICENSED\n\npragma solidity ^0.8.21;\n\ncontract DataStorage {\n    mapping(bytes32 => bytes) private data;\n    event DataStored(bytes32 indexed key, bytes value);\n    event DataDeleted(bytes32 indexed key);\n\n    function storeData(bytes32 key, bytes memory value) public {\n        data[key] = value;\n        emit DataStored(key, value);\n    }\n\n    function retrieveData(bytes32 key) public view returns (bytes memory) {\n        return data[key];\n    }\n\n    function deleteData(bytes32 key) public {\n        delete data[key];\n        emit DataDeleted(key);\n    }\n}\n",
  "sourcePath": "/Users/gustavahlstrom/Desktop/insurance-smart-contracts/contracts/DataStorage.sol",
  "compiler": {
    "name": "solc",
    "version": "0.8.21+commit.d9974bed.Emscripten.clang"
  },
  "schemaVersion": "3.4.16",
  "updatedAt": "2024-08-13T18:49:02.129Z",
  "networkType": "ethereum",
  "devdoc": {
    "kind": "dev",
    "methods": {},
    "version": 1
  },
  "userdoc": {
    "kind": "user",
    "methods": {},
    "version": 1
  }
}