{
  "contractName": "ExternalDataIntegration",
  "abi": [
    {
      "inputs": [
        {
          "internalType": "address",
          "name": "_oracle",
          "type": "address"
        }
      ],
      "stateMutability": "nonpayable",
      "type": "constructor"
    },
    {
      "anonymous": false,
      "inputs": [
        {
          "indexed": false,
          "internalType": "bytes32",
          "name": "requestId",
          "type": "bytes32"
        },
        {
          "indexed": false,
          "internalType": "bytes",
          "name": "data",
          "type": "bytes"
        }
      ],
      "name": "DataReceived",
      "type": "event"
    },
    {
      "anonymous": false,
      "inputs": [
        {
          "indexed": false,
          "internalType": "address",
          "name": "oracle",
          "type": "address"
        },
        {
          "indexed": false,
          "internalType": "bytes32",
          "name": "requestId",
          "type": "bytes32"
        }
      ],
      "name": "DataRequested",
      "type": "event"
    },
    {
      "inputs": [],
      "name": "oracle",
      "outputs": [
        {
          "internalType": "address",
          "name": "",
          "type": "address"
        }
      ],
      "stateMutability": "view",
      "type": "function"
    },
    {
      "inputs": [
        {
          "internalType": "bytes32",
          "name": "requestId",
          "type": "bytes32"
        }
      ],
      "name": "requestData",
      "outputs": [],
      "stateMutability": "nonpayable",
      "type": "function"
    },
    {
      "inputs": [
        {
          "internalType": "bytes32",
          "name": "requestId",
          "type": "bytes32"
        },
        {
          "internalType": "bytes",
          "name": "data",
          "type": "bytes"
        }
      ],
      "name": "receiveData",
      "outputs": [],
      "stateMutability": "nonpayable",
      "type": "function"
    }
  ],
  "bytecode": "0x608060405234801561000f575f80fd5b506040516105d13803806105d1833981810160405281019061003191906100d4565b805f806101000a81548173ffffffffffffffffffffffffffffffffffffffff021916908373ffffffffffffffffffffffffffffffffffffffff160217905550506100ff565b5f80fd5b5f73ffffffffffffffffffffffffffffffffffffffff82169050919050565b5f6100a38261007a565b9050919050565b6100b381610099565b81146100bd575f80fd5b50565b5f815190506100ce816100aa565b92915050565b5f602082840312156100e9576100e8610076565b5b5f6100f6848285016100c0565b91505092915050565b6104c58061010c5f395ff3fe608060405234801561000f575f80fd5b506004361061003f575f3560e01c80631b0c40b1146100435780633661346b1461005f5780637dc0d1d01461007b575b5f80fd5b61005d600480360381019061005891906102d4565b610099565b005b6100796004803603810190610074919061032e565b6100d6565b005b610083610131565b6040516100909190610398565b60405180910390f35b7f737bab2de9db54c0aecc9b7ca3cbfd98b1123b45ad31408468de36aaf259208a82826040516100ca92919061043a565b60405180910390a15050565b7f71c5c5ed0eb076aa5caa14b9ec29a4d15d5d6dcd424d91ff4f6999d32b3a207f5f8054906101000a900473ffffffffffffffffffffffffffffffffffffffff1682604051610126929190610468565b60405180910390a150565b5f8054906101000a900473ffffffffffffffffffffffffffffffffffffffff1681565b5f604051905090565b5f80fd5b5f80fd5b5f819050919050565b61017781610165565b8114610181575f80fd5b50565b5f813590506101928161016e565b92915050565b5f80fd5b5f80fd5b5f601f19601f8301169050919050565b7f4e487b71000000000000000000000000000000000000000000000000000000005f52604160045260245ffd5b6101e6826101a0565b810181811067ffffffffffffffff82111715610205576102046101b0565b5b80604052505050565b5f610217610154565b905061022382826101dd565b919050565b5f67ffffffffffffffff821115610242576102416101b0565b5b61024b826101a0565b9050602081019050919050565b828183375f83830152505050565b5f61027861027384610228565b61020e565b9050828152602081018484840111156102945761029361019c565b5b61029f848285610258565b509392505050565b5f82601f8301126102bb576102ba610198565b5b81356102cb848260208601610266565b91505092915050565b5f80604083850312156102ea576102e961015d565b5b5f6102f785828601610184565b925050602083013567ffffffffffffffff81111561031857610317610161565b5b610324858286016102a7565b9150509250929050565b5f602082840312156103435761034261015d565b5b5f61035084828501610184565b91505092915050565b5f73ffffffffffffffffffffffffffffffffffffffff82169050919050565b5f61038282610359565b9050919050565b61039281610378565b82525050565b5f6020820190506103ab5f830184610389565b92915050565b6103ba81610165565b82525050565b5f81519050919050565b5f82825260208201905092915050565b5f5b838110156103f75780820151818401526020810190506103dc565b5f8484015250505050565b5f61040c826103c0565b61041681856103ca565b93506104268185602086016103da565b61042f816101a0565b840191505092915050565b5f60408201905061044d5f8301856103b1565b818103602083015261045f8184610402565b90509392505050565b5f60408201905061047b5f830185610389565b61048860208301846103b1565b939250505056fea26469706673582212209d177635e6fbc08ded84cdf783171224d16a9ee2e211538635a1df954c2e3ee864736f6c63430008150033",
  "immutableReferences": {},
  "source": "// SPDX-License-Identifier: UNLICENSED\n\npragma solidity ^0.8.21;\n\ncontract ExternalDataIntegration {\n    address public oracle;\n    event DataRequested(address oracle, bytes32 requestId);\n    event DataReceived(bytes32 requestId, bytes data);\n\n    constructor(address _oracle) {\n        oracle = _oracle;\n    }\n\n    function requestData(bytes32 requestId) public {\n        // Logic to request data from the oracle\n        // Example: Sending a request to Chainlink or any other oracle service\n        emit DataRequested(oracle, requestId);\n    }\n\n    function receiveData(bytes32 requestId, bytes memory data) public {\n        // Logic to handle received data\n        // Example: Storing the received data for further processing\n        emit DataReceived(requestId, data);\n        // Additional processing logic can be added here\n    }\n}\n",
  "sourcePath": "/Users/gustavahlstrom/Desktop/insurance-smart-contracts/contracts/ExternalDataIntegration.sol",
  "compiler": {
    "name": "solc",
    "version": "0.8.21+commit.d9974bed.Emscripten.clang"
  },
  "schemaVersion": "3.4.16",
  "updatedAt": "2024-07-07T13:53:42.392Z",
  "devdoc": {
    "kind": "dev",
    "methods": {},
    "version": 1
  },
  "userdoc": {
    "kind": "user",
    "methods": {},
    "version": 1
  }
}