{
  "contractName": "ExternalDataIntegration",
  "abi": [
    {
      "inputs": [
        {
          "internalType": "address",
          "name": "_oracle",
          "type": "address"
        }
      ],
      "stateMutability": "nonpayable",
      "type": "constructor"
    },
    {
      "anonymous": false,
      "inputs": [
        {
          "indexed": false,
          "internalType": "bytes32",
          "name": "requestId",
          "type": "bytes32"
        },
        {
          "indexed": false,
          "internalType": "bytes",
          "name": "data",
          "type": "bytes"
        }
      ],
      "name": "DataReceived",
      "type": "event"
    },
    {
      "anonymous": false,
      "inputs": [
        {
          "indexed": false,
          "internalType": "address",
          "name": "oracle",
          "type": "address"
        },
        {
          "indexed": false,
          "internalType": "bytes32",
          "name": "requestId",
          "type": "bytes32"
        }
      ],
      "name": "DataRequested",
      "type": "event"
    },
    {
      "inputs": [],
      "name": "oracle",
      "outputs": [
        {
          "internalType": "address",
          "name": "",
          "type": "address"
        }
      ],
      "stateMutability": "view",
      "type": "function",
      "constant": true
    },
    {
      "inputs": [
        {
          "internalType": "bytes32",
          "name": "requestId",
          "type": "bytes32"
        }
      ],
      "name": "requestData",
      "outputs": [],
      "stateMutability": "nonpayable",
      "type": "function"
    },
    {
      "inputs": [
        {
          "internalType": "bytes32",
          "name": "requestId",
          "type": "bytes32"
        },
        {
          "internalType": "bytes",
          "name": "data",
          "type": "bytes"
        }
      ],
      "name": "receiveData",
      "outputs": [],
      "stateMutability": "nonpayable",
      "type": "function"
    }
  ],
  "bytecode": "0x608060405234801561001057600080fd5b5060405161032c38038061032c83398101604081905261002f91610054565b600080546001600160a01b0319166001600160a01b0392909216919091179055610084565b60006020828403121561006657600080fd5b81516001600160a01b038116811461007d57600080fd5b9392505050565b610299806100936000396000f3fe608060405234801561001057600080fd5b50600436106100415760003560e01c80631b0c40b1146100465780633661346b1461005b5780637dc0d1d01461006e575b600080fd5b610059610054366004610139565b61009d565b005b6100596100693660046101f4565b6100da565b600054610081906001600160a01b031681565b6040516001600160a01b03909116815260200160405180910390f35b7f737bab2de9db54c0aecc9b7ca3cbfd98b1123b45ad31408468de36aaf259208a82826040516100ce92919061020d565b60405180910390a15050565b600054604080516001600160a01b039092168252602082018390527f71c5c5ed0eb076aa5caa14b9ec29a4d15d5d6dcd424d91ff4f6999d32b3a207f910160405180910390a150565b634e487b7160e01b600052604160045260246000fd5b6000806040838503121561014c57600080fd5b82359150602083013567ffffffffffffffff8082111561016b57600080fd5b818501915085601f83011261017f57600080fd5b81358181111561019157610191610123565b604051601f8201601f19908116603f011681019083821181831017156101b9576101b9610123565b816040528281528860208487010111156101d257600080fd5b8260208601602083013760006020848301015280955050505050509250929050565b60006020828403121561020657600080fd5b5035919050565b82815260006020604081840152835180604085015260005b8181101561024157858101830151858201606001528201610225565b506000606082860101526060601f19601f83011685010192505050939250505056fea2646970667358221220e5e6715e432495714dc9d2d0f7c659b91bab416842f50378e12e8dcb8e8e676c64736f6c63430008150033",
  "immutableReferences": {},
  "source": "// SPDX-License-Identifier: UNLICENSED\n\npragma solidity ^0.8.21;\n\ncontract ExternalDataIntegration {\n    address public oracle;\n    event DataRequested(address oracle, bytes32 requestId);\n    event DataReceived(bytes32 requestId, bytes data);\n\n    constructor(address _oracle) {\n        oracle = _oracle;\n    }\n\n    function requestData(bytes32 requestId) public {\n        // Logic to request data from the oracle\n        // Example: Sending a request to Chainlink or any other oracle service\n        emit DataRequested(oracle, requestId);\n    }\n\n    function receiveData(bytes32 requestId, bytes memory data) public {\n        // Logic to handle received data\n        // Example: Storing the received data for further processing\n        emit DataReceived(requestId, data);\n        // Additional processing logic can be added here\n    }\n}\n",
  "sourcePath": "/Users/gustavahlstrom/Desktop/insurance-smart-contracts/contracts/ExternalDataIntegration.sol",
  "compiler": {
    "name": "solc",
    "version": "0.8.21+commit.d9974bed.Emscripten.clang"
  },
  "schemaVersion": "3.4.16",
  "updatedAt": "2024-08-11T09:52:23.315Z",
  "networkType": "ethereum",
  "devdoc": {
    "kind": "dev",
    "methods": {},
    "version": 1
  },
  "userdoc": {
    "kind": "user",
    "methods": {},
    "version": 1
  }
}