{
  "contractName": "Utility",
  "abi": [
    {
      "anonymous": false,
      "inputs": [
        {
          "indexed": false,
          "internalType": "bytes",
          "name": "data",
          "type": "bytes"
        },
        {
          "indexed": false,
          "internalType": "bool",
          "name": "valid",
          "type": "bool"
        }
      ],
      "name": "DataValidated",
      "type": "event"
    },
    {
      "anonymous": false,
      "inputs": [
        {
          "indexed": false,
          "internalType": "address",
          "name": "oracle",
          "type": "address"
        },
        {
          "indexed": false,
          "internalType": "bytes",
          "name": "data",
          "type": "bytes"
        }
      ],
      "name": "ExternalDataIntegrated",
      "type": "event"
    },
    {
      "anonymous": false,
      "inputs": [
        {
          "indexed": false,
          "internalType": "bytes32",
          "name": "coverageDetails",
          "type": "bytes32"
        },
        {
          "indexed": false,
          "internalType": "uint256",
          "name": "premium",
          "type": "uint256"
        }
      ],
      "name": "PremiumCalculated",
      "type": "event"
    },
    {
      "inputs": [
        {
          "internalType": "bytes",
          "name": "data",
          "type": "bytes"
        }
      ],
      "name": "validateData",
      "outputs": [
        {
          "internalType": "bool",
          "name": "",
          "type": "bool"
        }
      ],
      "stateMutability": "nonpayable",
      "type": "function"
    },
    {
      "inputs": [
        {
          "internalType": "bytes32",
          "name": "coverageDetails",
          "type": "bytes32"
        }
      ],
      "name": "calculatePremium",
      "outputs": [
        {
          "internalType": "uint256",
          "name": "",
          "type": "uint256"
        }
      ],
      "stateMutability": "nonpayable",
      "type": "function"
    },
    {
      "inputs": [
        {
          "internalType": "address",
          "name": "oracle",
          "type": "address"
        }
      ],
      "name": "integrateExternalData",
      "outputs": [
        {
          "internalType": "bytes",
          "name": "",
          "type": "bytes"
        }
      ],
      "stateMutability": "nonpayable",
      "type": "function"
    }
  ],
  "bytecode": "0x608060405234801561001057600080fd5b50610375806100206000396000f3fe608060405234801561001057600080fd5b50600436106100415760003560e01c806331bfcacf146100465780634a1d0bfb1461006c578063a6ffa36c1461008c575b600080fd5b610059610054366004610186565b6100af565b6040519081526020015b60405180910390f35b61007f61007a36600461019f565b6100f6565b6040516100639190610215565b61009f61009a36600461023e565b61014e565b6040519015158152602001610063565b6040805182815260646020820181905260009290917f467a34642d995daf50cbd07e50fddf7fbc11193926d4f6a3ac767b57ab5e7e5191015b60405180910390a192915050565b604080518082018252600d81526c65787465726e616c206461746160981b60208201529051606091907f49b6a413c5f6ce0d8a66be370cb8b595047871992ec8775241abf801379894b0906100e890859084906102ef565b600080600190507fa2b4b98f1619527e26a96cf4adcc477b69434952c4afe7c97f2c8977dbe5ad3383826040516100e892919061031b565b60006020828403121561019857600080fd5b5035919050565b6000602082840312156101b157600080fd5b81356001600160a01b03811681146101c857600080fd5b9392505050565b6000815180845260005b818110156101f5576020818501810151868301820152016101d9565b506000602082860101526020601f19601f83011685010191505092915050565b6020815260006101c860208301846101cf565b634e487b7160e01b600052604160045260246000fd5b60006020828403121561025057600080fd5b813567ffffffffffffffff8082111561026857600080fd5b818401915084601f83011261027c57600080fd5b81358181111561028e5761028e610228565b604051601f8201601f19908116603f011681019083821181831017156102b6576102b6610228565b816040528281528760208487010111156102cf57600080fd5b826020860160208301376000928101602001929092525095945050505050565b6001600160a01b0383168152604060208201819052600090610313908301846101cf565b949350505050565b60408152600061032e60408301856101cf565b90508215156020830152939250505056fea2646970667358221220e726ee364b2a0db1b509a056e20bfb6f4ea7d507759b7fa3af685719e97f146664736f6c63430008150033",
  "immutableReferences": {},
  "source": "// SPDX-License-Identifier: UNLICENSED\n\npragma solidity ^0.8.21;\n\ncontract Utility {\n    event DataValidated(bytes data, bool valid);\n    event PremiumCalculated(bytes32 coverageDetails, uint256 premium);\n    event ExternalDataIntegrated(address oracle, bytes data);\n\n    function validateData(bytes memory data) public returns (bool) {\n        bool valid = true; // placeholder logic\n        emit DataValidated(data, valid);\n        return valid;\n    }\n\n    function calculatePremium(bytes32 coverageDetails) public returns (uint256) {\n        uint256 premium = 100; // example fixed premium value\n        emit PremiumCalculated(coverageDetails, premium);\n        return premium;\n    }\n\n    function integrateExternalData(address oracle) public returns (bytes memory) {\n        bytes memory data = \"external data\"; // placeholder logic\n        emit ExternalDataIntegrated(oracle, data);\n        return data;\n    }\n}\n",
  "sourcePath": "/Users/gustavahlstrom/Desktop/insurance-smart-contracts/contracts/Utility.sol",
  "compiler": {
    "name": "solc",
    "version": "0.8.21+commit.d9974bed.Emscripten.clang"
  },
  "schemaVersion": "3.4.16",
  "updatedAt": "2024-08-11T09:52:23.307Z",
  "networkType": "ethereum",
  "devdoc": {
    "kind": "dev",
    "methods": {},
    "version": 1
  },
  "userdoc": {
    "kind": "user",
    "methods": {},
    "version": 1
  }
}