{
  "contractName": "Utility",
  "abi": [
    {
      "anonymous": false,
      "inputs": [
        {
          "indexed": false,
          "internalType": "bytes",
          "name": "data",
          "type": "bytes"
        },
        {
          "indexed": false,
          "internalType": "bool",
          "name": "valid",
          "type": "bool"
        }
      ],
      "name": "DataValidated",
      "type": "event"
    },
    {
      "anonymous": false,
      "inputs": [
        {
          "indexed": false,
          "internalType": "address",
          "name": "oracle",
          "type": "address"
        },
        {
          "indexed": false,
          "internalType": "bytes",
          "name": "data",
          "type": "bytes"
        }
      ],
      "name": "ExternalDataIntegrated",
      "type": "event"
    },
    {
      "anonymous": false,
      "inputs": [
        {
          "indexed": false,
          "internalType": "bytes32",
          "name": "coverageDetails",
          "type": "bytes32"
        },
        {
          "indexed": false,
          "internalType": "uint256",
          "name": "premium",
          "type": "uint256"
        }
      ],
      "name": "PremiumCalculated",
      "type": "event"
    },
    {
      "inputs": [
        {
          "internalType": "bytes",
          "name": "data",
          "type": "bytes"
        }
      ],
      "name": "validateData",
      "outputs": [
        {
          "internalType": "bool",
          "name": "",
          "type": "bool"
        }
      ],
      "stateMutability": "nonpayable",
      "type": "function"
    },
    {
      "inputs": [
        {
          "internalType": "bytes32",
          "name": "coverageDetails",
          "type": "bytes32"
        }
      ],
      "name": "calculatePremium",
      "outputs": [
        {
          "internalType": "uint256",
          "name": "",
          "type": "uint256"
        }
      ],
      "stateMutability": "nonpayable",
      "type": "function"
    },
    {
      "inputs": [
        {
          "internalType": "address",
          "name": "oracle",
          "type": "address"
        }
      ],
      "name": "integrateExternalData",
      "outputs": [
        {
          "internalType": "bytes",
          "name": "",
          "type": "bytes"
        }
      ],
      "stateMutability": "nonpayable",
      "type": "function"
    }
  ],
  "bytecode": "0x608060405234801561000f575f80fd5b5061062c8061001d5f395ff3fe608060405234801561000f575f80fd5b506004361061003f575f3560e01c806331bfcacf146100435780634a1d0bfb14610073578063a6ffa36c146100a3575b5f80fd5b61005d60048036038101906100589190610224565b6100d3565b60405161006a9190610267565b60405180910390f35b61008d600480360381019061008891906102da565b61011b565b60405161009a919061038f565b60405180910390f35b6100bd60048036038101906100b891906104db565b610198565b6040516100ca919061053c565b60405180910390f35b5f80606490507f467a34642d995daf50cbd07e50fddf7fbc11193926d4f6a3ac767b57ab5e7e51838260405161010a929190610564565b60405180910390a180915050919050565b60605f6040518060400160405280600d81526020017f65787465726e616c20646174610000000000000000000000000000000000000081525090507f49b6a413c5f6ce0d8a66be370cb8b595047871992ec8775241abf801379894b0838260405161018792919061059a565b60405180910390a180915050919050565b5f80600190507fa2b4b98f1619527e26a96cf4adcc477b69434952c4afe7c97f2c8977dbe5ad3383826040516101cf9291906105c8565b60405180910390a180915050919050565b5f604051905090565b5f80fd5b5f80fd5b5f819050919050565b610203816101f1565b811461020d575f80fd5b50565b5f8135905061021e816101fa565b92915050565b5f60208284031215610239576102386101e9565b5b5f61024684828501610210565b91505092915050565b5f819050919050565b6102618161024f565b82525050565b5f60208201905061027a5f830184610258565b92915050565b5f73ffffffffffffffffffffffffffffffffffffffff82169050919050565b5f6102a982610280565b9050919050565b6102b98161029f565b81146102c3575f80fd5b50565b5f813590506102d4816102b0565b92915050565b5f602082840312156102ef576102ee6101e9565b5b5f6102fc848285016102c6565b91505092915050565b5f81519050919050565b5f82825260208201905092915050565b5f5b8381101561033c578082015181840152602081019050610321565b5f8484015250505050565b5f601f19601f8301169050919050565b5f61036182610305565b61036b818561030f565b935061037b81856020860161031f565b61038481610347565b840191505092915050565b5f6020820190508181035f8301526103a78184610357565b905092915050565b5f80fd5b5f80fd5b7f4e487b71000000000000000000000000000000000000000000000000000000005f52604160045260245ffd5b6103ed82610347565b810181811067ffffffffffffffff8211171561040c5761040b6103b7565b5b80604052505050565b5f61041e6101e0565b905061042a82826103e4565b919050565b5f67ffffffffffffffff821115610449576104486103b7565b5b61045282610347565b9050602081019050919050565b828183375f83830152505050565b5f61047f61047a8461042f565b610415565b90508281526020810184848401111561049b5761049a6103b3565b5b6104a684828561045f565b509392505050565b5f82601f8301126104c2576104c16103af565b5b81356104d284826020860161046d565b91505092915050565b5f602082840312156104f0576104ef6101e9565b5b5f82013567ffffffffffffffff81111561050d5761050c6101ed565b5b610519848285016104ae565b91505092915050565b5f8115159050919050565b61053681610522565b82525050565b5f60208201905061054f5f83018461052d565b92915050565b61055e816101f1565b82525050565b5f6040820190506105775f830185610555565b6105846020830184610258565b9392505050565b6105948161029f565b82525050565b5f6040820190506105ad5f83018561058b565b81810360208301526105bf8184610357565b90509392505050565b5f6040820190508181035f8301526105e08185610357565b90506105ef602083018461052d565b939250505056fea2646970667358221220796417bd57c368217b70a86cbcfcfa22870ffe3f5f6fdb709810ebdd9f60c08964736f6c63430008150033",
  "immutableReferences": {},
  "source": "// SPDX-License-Identifier: UNLICENSED\n\npragma solidity ^0.8.21;\n\ncontract Utility {\n    event DataValidated(bytes data, bool valid);\n    event PremiumCalculated(bytes32 coverageDetails, uint256 premium);\n    event ExternalDataIntegrated(address oracle, bytes data);\n\n    function validateData(bytes memory data) public returns (bool) {\n        bool valid = true; // placeholder logic\n        emit DataValidated(data, valid);\n        return valid;\n    }\n\n    function calculatePremium(bytes32 coverageDetails) public returns (uint256) {\n        uint256 premium = 100; // example fixed premium value\n        emit PremiumCalculated(coverageDetails, premium);\n        return premium;\n    }\n\n    function integrateExternalData(address oracle) public returns (bytes memory) {\n        bytes memory data = \"external data\"; // placeholder logic\n        emit ExternalDataIntegrated(oracle, data);\n        return data;\n    }\n}\n",
  "sourcePath": "/Users/gustavahlstrom/Desktop/insurance-smart-contracts/contracts/Utility.sol",
  "compiler": {
    "name": "solc",
    "version": "0.8.21+commit.d9974bed.Emscripten.clang"
  },
  "schemaVersion": "3.4.16",
  "updatedAt": "2024-07-07T13:53:42.404Z",
  "devdoc": {
    "kind": "dev",
    "methods": {},
    "version": 1
  },
  "userdoc": {
    "kind": "user",
    "methods": {},
    "version": 1
  }
}